{
  "contractName": "Project",
  "abi": [
    {
      "inputs": [
        {
          "internalType": "address",
          "name": "creator",
          "type": "address"
        },
        {
          "internalType": "string",
          "name": "name",
          "type": "string"
        },
        {
          "internalType": "string",
          "name": "description",
          "type": "string"
        }
      ],
      "payable": false,
      "stateMutability": "nonpayable",
      "type": "constructor"
    },
    {
      "constant": true,
      "inputs": [
        {
          "internalType": "uint256",
          "name": "",
          "type": "uint256"
        }
      ],
      "name": "expenses",
      "outputs": [
        {
          "internalType": "string",
          "name": "description",
          "type": "string"
        },
        {
          "internalType": "string",
          "name": "category",
          "type": "string"
        },
        {
          "internalType": "uint256",
          "name": "amount",
          "type": "uint256"
        },
        {
          "internalType": "address payable",
          "name": "vendor",
          "type": "address"
        },
        {
          "internalType": "bool",
          "name": "paid",
          "type": "bool"
        }
      ],
      "payable": false,
      "stateMutability": "view",
      "type": "function"
    },
    {
      "constant": true,
      "inputs": [
        {
          "internalType": "uint256",
          "name": "",
          "type": "uint256"
        }
      ],
      "name": "incomes",
      "outputs": [
        {
          "internalType": "string",
          "name": "description",
          "type": "string"
        },
        {
          "internalType": "string",
          "name": "category",
          "type": "string"
        },
        {
          "internalType": "uint256",
          "name": "amount",
          "type": "uint256"
        },
        {
          "internalType": "address",
          "name": "customer",
          "type": "address"
        },
        {
          "internalType": "bool",
          "name": "paid",
          "type": "bool"
        }
      ],
      "payable": false,
      "stateMutability": "view",
      "type": "function"
    },
    {
      "constant": true,
      "inputs": [],
      "name": "manager",
      "outputs": [
        {
          "internalType": "address",
          "name": "",
          "type": "address"
        }
      ],
      "payable": false,
      "stateMutability": "view",
      "type": "function"
    },
    {
      "constant": true,
      "inputs": [],
      "name": "projectDescription",
      "outputs": [
        {
          "internalType": "string",
          "name": "",
          "type": "string"
        }
      ],
      "payable": false,
      "stateMutability": "view",
      "type": "function"
    },
    {
      "constant": true,
      "inputs": [],
      "name": "projectName",
      "outputs": [
        {
          "internalType": "string",
          "name": "",
          "type": "string"
        }
      ],
      "payable": false,
      "stateMutability": "view",
      "type": "function"
    },
    {
      "constant": false,
      "inputs": [
        {
          "internalType": "string",
          "name": "description",
          "type": "string"
        },
        {
          "internalType": "string",
          "name": "category",
          "type": "string"
        },
        {
          "internalType": "uint256",
          "name": "amount",
          "type": "uint256"
        },
        {
          "internalType": "address payable",
          "name": "vendor",
          "type": "address"
        }
      ],
      "name": "addExpense",
      "outputs": [],
      "payable": false,
      "stateMutability": "nonpayable",
      "type": "function"
    },
    {
      "constant": false,
      "inputs": [
        {
          "internalType": "string",
          "name": "description",
          "type": "string"
        },
        {
          "internalType": "string",
          "name": "category",
          "type": "string"
        },
        {
          "internalType": "uint256",
          "name": "amount",
          "type": "uint256"
        }
      ],
      "name": "addIncome",
      "outputs": [],
      "payable": false,
      "stateMutability": "nonpayable",
      "type": "function"
    },
    {
      "constant": false,
      "inputs": [
        {
          "internalType": "uint256",
          "name": "index",
          "type": "uint256"
        }
      ],
      "name": "payExpense",
      "outputs": [],
      "payable": false,
      "stateMutability": "nonpayable",
      "type": "function"
    },
    {
      "constant": false,
      "inputs": [
        {
          "internalType": "uint256",
          "name": "index",
          "type": "uint256"
        },
        {
          "internalType": "address",
          "name": "customer",
          "type": "address"
        }
      ],
      "name": "recieveIncome",
      "outputs": [],
      "payable": true,
      "stateMutability": "payable",
      "type": "function"
    },
    {
      "constant": true,
      "inputs": [],
      "name": "getIncomesCount",
      "outputs": [
        {
          "internalType": "uint256",
          "name": "",
          "type": "uint256"
        }
      ],
      "payable": false,
      "stateMutability": "view",
      "type": "function"
    },
    {
      "constant": true,
      "inputs": [],
      "name": "getExpensesCount",
      "outputs": [
        {
          "internalType": "uint256",
          "name": "",
          "type": "uint256"
        }
      ],
      "payable": false,
      "stateMutability": "view",
      "type": "function"
    }
  ],
  "bytecode": "0x60806040523480156200001157600080fd5b50604051620015b6380380620015b6833981810160405260608110156200003757600080fd5b8101908080519060200190929190805160405193929190846401000000008211156200006257600080fd5b838201915060208201858111156200007957600080fd5b82518660018202830111640100000000821117156200009757600080fd5b8083526020830192505050908051906020019080838360005b83811015620000cd578082015181840152602081019050620000b0565b50505050905090810190601f168015620000fb5780820380516001836020036101000a031916815260200191505b50604052602001805160405193929190846401000000008211156200011f57600080fd5b838201915060208201858111156200013657600080fd5b82518660018202830111640100000000821117156200015457600080fd5b8083526020830192505050908051906020019080838360005b838110156200018a5780820151818401526020810190506200016d565b50505050905090810190601f168015620001b85780820380516001836020036101000a031916815260200191505b5060405250505082600260006101000a81548173ffffffffffffffffffffffffffffffffffffffff021916908373ffffffffffffffffffffffffffffffffffffffff1602179055508160039080519060200190620002189291906200023b565b508060049080519060200190620002319291906200023b565b50505050620002ea565b828054600181600116156101000203166002900490600052602060002090601f016020900481019282601f106200027e57805160ff1916838001178555620002af565b82800160010185558215620002af579182015b82811115620002ae57825182559160200191906001019062000291565b5b509050620002be9190620002c2565b5090565b620002e791905b80821115620002e3576000816000905550600101620002c9565b5090565b90565b6112bc80620002fa6000396000f3fe60806040526004361061009c5760003560e01c806384c13bad1161006457806384c13bad1461038a5780638bfcfe14146104f35780639a33e3001461051e578063af4afe0a146105ae578063afc8c81214610713578063ce4061c4146108785761009c565b80630daded95146100a15780631f34a784146100cc578063245586011461011a578063481c6a75146102a3578063755f047b146102fa575b600080fd5b3480156100ad57600080fd5b506100b66108b3565b6040518082815260200191505060405180910390f35b610118600480360360408110156100e257600080fd5b8101908080359060200190929190803573ffffffffffffffffffffffffffffffffffffffff1690602001909291905050506108c0565b005b34801561012657600080fd5b506102a16004803603608081101561013d57600080fd5b810190808035906020019064010000000081111561015a57600080fd5b82018360208201111561016c57600080fd5b8035906020019184600183028401116401000000008311171561018e57600080fd5b91908080601f016020809104026020016040519081016040528093929190818152602001838380828437600081840152601f19601f820116905080830192505050505050509192919290803590602001906401000000008111156101f157600080fd5b82018360208201111561020357600080fd5b8035906020019184600183028401116401000000008311171561022557600080fd5b91908080601f016020809104026020016040519081016040528093929190818152602001838380828437600081840152601f19601f82011690508083019250505050505050919291929080359060200190929190803573ffffffffffffffffffffffffffffffffffffffff169060200190929190505050610943565b005b3480156102af57600080fd5b506102b8610a70565b604051808273ffffffffffffffffffffffffffffffffffffffff1673ffffffffffffffffffffffffffffffffffffffff16815260200191505060405180910390f35b34801561030657600080fd5b5061030f610a96565b6040518080602001828103825283818151815260200191508051906020019080838360005b8381101561034f578082015181840152602081019050610334565b50505050905090810190601f16801561037c5780820380516001836020036101000a031916815260200191505b509250505060405180910390f35b34801561039657600080fd5b506104f1600480360360608110156103ad57600080fd5b81019080803590602001906401000000008111156103ca57600080fd5b8201836020820111156103dc57600080fd5b803590602001918460018302840111640100000000831117156103fe57600080fd5b91908080601f016020809104026020016040519081016040528093929190818152602001838380828437600081840152601f19601f8201169050808301925050505050505091929192908035906020019064010000000081111561046157600080fd5b82018360208201111561047357600080fd5b8035906020019184600183028401116401000000008311171561049557600080fd5b91908080601f016020809104026020016040519081016040528093929190818152602001838380828437600081840152601f19601f82011690508083019250505050505050919291929080359060200190929190505050610b34565b005b3480156104ff57600080fd5b50610508610c61565b6040518082815260200191505060405180910390f35b34801561052a57600080fd5b50610533610c6d565b6040518080602001828103825283818151815260200191508051906020019080838360005b83811015610573578082015181840152602081019050610558565b50505050905090810190601f1680156105a05780820380516001836020036101000a031916815260200191505b509250505060405180910390f35b3480156105ba57600080fd5b506105e7600480360360208110156105d157600080fd5b8101908080359060200190929190505050610d0b565b6040518080602001806020018681526020018573ffffffffffffffffffffffffffffffffffffffff1673ffffffffffffffffffffffffffffffffffffffff16815260200184151515158152602001838103835288818151815260200191508051906020019080838360005b8381101561066d578082015181840152602081019050610652565b50505050905090810190601f16801561069a5780820380516001836020036101000a031916815260200191505b50838103825287818151815260200191508051906020019080838360005b838110156106d35780820151818401526020810190506106b8565b50505050905090810190601f1680156107005780820380516001836020036101000a031916815260200191505b5097505050505050505060405180910390f35b34801561071f57600080fd5b5061074c6004803603602081101561073657600080fd5b8101908080359060200190929190505050610eab565b6040518080602001806020018681526020018573ffffffffffffffffffffffffffffffffffffffff1673ffffffffffffffffffffffffffffffffffffffff16815260200184151515158152602001838103835288818151815260200191508051906020019080838360005b838110156107d25780820151818401526020810190506107b7565b50505050905090810190601f1680156107ff5780820380516001836020036101000a031916815260200191505b50838103825287818151815260200191508051906020019080838360005b8381101561083857808201518184015260208101905061081d565b50505050905090810190601f1680156108655780820380516001836020036101000a031916815260200191505b5097505050505050505060405180910390f35b34801561088457600080fd5b506108b16004803603602081101561089b57600080fd5b810190808035906020019092919050505061104b565b005b6000600180549050905090565b60008083815481106108ce57fe5b90600052602060002090600402019050818160030160006101000a81548173ffffffffffffffffffffffffffffffffffffffff021916908373ffffffffffffffffffffffffffffffffffffffff16021790555060018160030160146101000a81548160ff021916908315150217905550505050565b61094b611154565b6040518060a001604052808681526020018581526020018481526020018373ffffffffffffffffffffffffffffffffffffffff1681526020016000151581525090506001819080600181540180825580915050906001820390600052602060002090600402016000909192909190915060008201518160000190805190602001906109d792919061119b565b5060208201518160010190805190602001906109f492919061119b565b506040820151816002015560608201518160030160006101000a81548173ffffffffffffffffffffffffffffffffffffffff021916908373ffffffffffffffffffffffffffffffffffffffff16021790555060808201518160030160146101000a81548160ff0219169083151502179055505050505050505050565b600260009054906101000a900473ffffffffffffffffffffffffffffffffffffffff1681565b60048054600181600116156101000203166002900480601f016020809104026020016040519081016040528092919081815260200182805460018160011615610100020316600290048015610b2c5780601f10610b0157610100808354040283529160200191610b2c565b820191906000526020600020905b815481529060010190602001808311610b0f57829003601f168201915b505050505081565b610b3c61121b565b6040518060a00160405280858152602001848152602001838152602001600073ffffffffffffffffffffffffffffffffffffffff168152602001600015158152509050600081908060018154018082558091505090600182039060005260206000209060040201600090919290919091506000820151816000019080519060200190610bc992919061119b565b506020820151816001019080519060200190610be692919061119b565b506040820151816002015560608201518160030160006101000a81548173ffffffffffffffffffffffffffffffffffffffff021916908373ffffffffffffffffffffffffffffffffffffffff16021790555060808201518160030160146101000a81548160ff02191690831515021790555050505050505050565b60008080549050905090565b60038054600181600116156101000203166002900480601f016020809104026020016040519081016040528092919081815260200182805460018160011615610100020316600290048015610d035780601f10610cd857610100808354040283529160200191610d03565b820191906000526020600020905b815481529060010190602001808311610ce657829003601f168201915b505050505081565b60018181548110610d1857fe5b9060005260206000209060040201600091509050806000018054600181600116156101000203166002900480601f016020809104026020016040519081016040528092919081815260200182805460018160011615610100020316600290048015610dc45780601f10610d9957610100808354040283529160200191610dc4565b820191906000526020600020905b815481529060010190602001808311610da757829003601f168201915b505050505090806001018054600181600116156101000203166002900480601f016020809104026020016040519081016040528092919081815260200182805460018160011615610100020316600290048015610e625780601f10610e3757610100808354040283529160200191610e62565b820191906000526020600020905b815481529060010190602001808311610e4557829003601f168201915b5050505050908060020154908060030160009054906101000a900473ffffffffffffffffffffffffffffffffffffffff16908060030160149054906101000a900460ff16905085565b60008181548110610eb857fe5b9060005260206000209060040201600091509050806000018054600181600116156101000203166002900480601f016020809104026020016040519081016040528092919081815260200182805460018160011615610100020316600290048015610f645780601f10610f3957610100808354040283529160200191610f64565b820191906000526020600020905b815481529060010190602001808311610f4757829003601f168201915b505050505090806001018054600181600116156101000203166002900480601f0160208091040260200160405190810160405280929190818152602001828054600181600116156101000203166002900480156110025780601f10610fd757610100808354040283529160200191611002565b820191906000526020600020905b815481529060010190602001808311610fe557829003601f168201915b5050505050908060020154908060030160009054906101000a900473ffffffffffffffffffffffffffffffffffffffff16908060030160149054906101000a900460ff16905085565b600260009054906101000a900473ffffffffffffffffffffffffffffffffffffffff1673ffffffffffffffffffffffffffffffffffffffff163373ffffffffffffffffffffffffffffffffffffffff16146110a557600080fd5b6000600182815481106110b457fe5b906000526020600020906004020190508060030160009054906101000a900473ffffffffffffffffffffffffffffffffffffffff1673ffffffffffffffffffffffffffffffffffffffff166108fc82600201549081150290604051600060405180830381858888f19350505050158015611132573d6000803e3d6000fd5b5060018160030160146101000a81548160ff0219169083151502179055505050565b6040518060a00160405280606081526020016060815260200160008152602001600073ffffffffffffffffffffffffffffffffffffffff1681526020016000151581525090565b828054600181600116156101000203166002900490600052602060002090601f016020900481019282601f106111dc57805160ff191683800117855561120a565b8280016001018555821561120a579182015b828111156112095782518255916020019190600101906111ee565b5b5090506112179190611262565b5090565b6040518060a00160405280606081526020016060815260200160008152602001600073ffffffffffffffffffffffffffffffffffffffff1681526020016000151581525090565b61128491905b80821115611280576000816000905550600101611268565b5090565b9056fea265627a7a723158207fdbddb1f9e47afb8a36abc91fac19dcc662585e7575c0c6c646a1ba78f4b34464736f6c63430005100032",
  "source": "// SPDX-License-Identifier: GPL-3.0\n\npragma solidity >=0.5.0 <0.9.0;\n\n\ncontract projectGenerator {\n    Project[] public deployedProjects;\n    \n    function createCampaign(string memory projectName, string memory projectDescription) public {\n        Project newProject = new Project(msg.sender, projectName, projectDescription);\n        deployedProjects.push(newProject);\n    }\n    \n    function getDeployedCampaigns() public view returns (Project[] memory) {\n        return deployedProjects;\n    }\n}\n\ncontract Project {\n    \n    struct Expense {\n        string description;\n        string category;\n        uint256 amount;\n        address payable vendor;\n        bool paid;\n    }\n    \n    struct Income {\n        string description;\n        string category;\n        uint256 amount;\n        address customer;\n        bool paid;\n    }\n    \n    Income[] public incomes;\n    Expense[] public expenses;\n    address public manager;\n    string public projectName;\n    string public projectDescription;\n    \n    constructor(address creator, string memory name, string memory description) public {\n        manager = creator;\n        projectName = name;\n        projectDescription = description;\n    }\n    \n    function addExpense(string memory description, string memory category, uint256 amount, address payable vendor) public {\n        Expense memory expense = Expense({\n            description: description,\n            category: category,\n            amount: amount,\n            vendor: vendor,\n            paid: false\n            });\n        expenses.push(expense);\n    }\n    \n    function addIncome(string memory description, string memory category, uint256 amount) public {\n        Income memory income = Income({\n            description: description,\n            category: category,\n            amount: amount,\n            customer: address(0),\n            paid: false\n            });\n        incomes.push(income);\n    }\n    \n    function payExpense(uint index) public restricted {\n        Expense storage expense = expenses[index];\n        \n        expense.vendor.transfer(expense.amount);\n        expense.paid = true;\n    }\n    \n    function recieveIncome(uint index, address customer) public payable {\n        Income storage income = incomes[index];\n        \n        income.customer = customer;\n        income.paid = true;\n    }\n\n    function getIncomesCount() public view returns (uint) {\n        return incomes.length;\n    }\n\n\n    function getExpensesCount() public view returns (uint) {\n        return expenses.length;\n    }\n\n    \n    modifier restricted() {\n        require(msg.sender == manager);\n        _;\n    }\n}\n\n\n\n\n\n\n\n\n// // SPDX-License-Identifier: GPL-3.0\n\n// pragma solidity >=0.4.22 <0.9.0;\n\n\n// contract projectGenerator {\n//     address[] public deployedProjects;\n    \n//     function createCampaign(uint minimum) public {\n        \n//         address newProject = new Project( msg.sender);\n//         deployedProjects.push(newProject);\n//     }\n    \n//     function getDeployedCampaigns() public view returns (address[] memory) {\n//         return deployedProjects;\n//     }\n// }\n\n\n\n\n// contract Project {\n    \n//     struct Expense {\n//         string description;\n//         string category;\n//         uint256 amount;\n//         address payable vendor;\n//         bool paid;\n//     }\n    \n//     struct Income {\n//         string description;\n//         string category;\n//         uint256 amount;\n//         address customer;\n//         bool paid;\n//     }\n    \n//     Income[] public incomes;\n//     Expense[] public expenses;\n//     uint public incomeTotal;\n//     uint public expenseTotal;\n//     address public manager;\n    \n//     constructor(uint minimum, address creator) public {\n//         manager = creator;\n//         m\n//     }\n    \n//     function addExpense(string memory description, string memory category, uint256 amount, address payable vendor) public {\n//         Expense memory expense = Expense({\n//             description: description,\n//             category: category,\n//             amount: amount,\n//             vendor: vendor,\n//             paid: false\n//             });\n//         expenses.push(expense);\n//     }\n    \n//     function addIncome(string memory description, string memory category, uint256 amount) public {\n//         Income memory income = Income({\n//             description: description,\n//             category: category,\n//             amount: amount,\n//             customer: address(0),\n//             paid: false\n//             });\n//         incomes.push(income);\n//     }\n    \n//     function payExpense(uint index) public restricted {\n//         Expense storage expense = expenses[index];\n        \n//         expense.vendor.transfer(expense.amount);\n//         expense.paid = true;\n//     }\n    \n//     function recieveIncome(uint index, address customer) public payable {\n//         Income storage income = incomes[index];\n        \n//         income.customer = customer;\n//         income.paid = true;\n//     }\n\n//     function getIncomesCount() public view returns (uint) {\n//         return incomes.length;\n//     }\n\n\n//     function getExpensesCount() public view returns (uint) {\n//         return expenses.length;\n//     }\n\n    \n//     modifier restricted() {\n//         require(msg.sender == manager);\n//         _;\n//     }\n// }",
  "sourcePath": "/Users/sean/Documents/Coding Projects/Account/contracts/Account.sol",
  "compiler": {
    "name": "solc",
    "version": "0.5.16+commit.9c3226ce.Emscripten.clang"
  },
  "schemaVersion": "3.4.1",
  "updatedAt": "2021-05-31T11:47:34.961Z",
  "devdoc": {
    "methods": {}
  },
  "userdoc": {
    "methods": {}
  }
}